{
  "_format": "hh-sol-artifact-1",
  "contractName": "ZeroLossLottery",
  "sourceName": "contracts/ZeroLossLottery.sol",
  "abi": [
    {
      "inputs": [
        {
          "internalType": "address",
          "name": "_seiAddress",
          "type": "address"
        }
      ],
      "stateMutability": "nonpayable",
      "type": "constructor"
    },
    {
      "anonymous": false,
      "inputs": [
        {
          "indexed": false,
          "internalType": "address",
          "name": "firstWinner",
          "type": "address"
        },
        {
          "indexed": false,
          "internalType": "address",
          "name": "secondWinner",
          "type": "address"
        }
      ],
      "name": "DrawCompleted",
      "type": "event"
    },
    {
      "anonymous": false,
      "inputs": [
        {
          "indexed": false,
          "internalType": "address",
          "name": "user",
          "type": "address"
        },
        {
          "indexed": false,
          "internalType": "uint256",
          "name": "refundAmount",
          "type": "uint256"
        },
        {
          "indexed": false,
          "internalType": "uint256",
          "name": "prizeAmount",
          "type": "uint256"
        }
      ],
      "name": "FundsClaimed",
      "type": "event"
    },
    {
      "anonymous": false,
      "inputs": [
        {
          "indexed": false,
          "internalType": "uint256",
          "name": "amount",
          "type": "uint256"
        }
      ],
      "name": "InterestAdded",
      "type": "event"
    },
    {
      "anonymous": false,
      "inputs": [
        {
          "indexed": true,
          "internalType": "address",
          "name": "previousOwner",
          "type": "address"
        },
        {
          "indexed": true,
          "internalType": "address",
          "name": "newOwner",
          "type": "address"
        }
      ],
      "name": "OwnershipTransferred",
      "type": "event"
    },
    {
      "anonymous": false,
      "inputs": [
        {
          "indexed": false,
          "internalType": "address",
          "name": "buyer",
          "type": "address"
        },
        {
          "indexed": false,
          "internalType": "uint256",
          "name": "numTickets",
          "type": "uint256"
        }
      ],
      "name": "TicketsPurchased",
      "type": "event"
    },
    {
      "inputs": [
        {
          "internalType": "uint256",
          "name": "percentage",
          "type": "uint256"
        }
      ],
      "name": "addInterest",
      "outputs": [],
      "stateMutability": "nonpayable",
      "type": "function"
    },
    {
      "inputs": [
        {
          "internalType": "uint256",
          "name": "numTickets",
          "type": "uint256"
        }
      ],
      "name": "buyTickets",
      "outputs": [],
      "stateMutability": "nonpayable",
      "type": "function"
    },
    {
      "inputs": [],
      "name": "claimFunds",
      "outputs": [],
      "stateMutability": "nonpayable",
      "type": "function"
    },
    {
      "inputs": [],
      "name": "claimPlatformFee",
      "outputs": [],
      "stateMutability": "nonpayable",
      "type": "function"
    },
    {
      "inputs": [],
      "name": "drawCompleted",
      "outputs": [
        {
          "internalType": "bool",
          "name": "",
          "type": "bool"
        }
      ],
      "stateMutability": "view",
      "type": "function"
    },
    {
      "inputs": [
        {
          "internalType": "uint256",
          "name": "seed",
          "type": "uint256"
        }
      ],
      "name": "drawWinners",
      "outputs": [],
      "stateMutability": "nonpayable",
      "type": "function"
    },
    {
      "inputs": [],
      "name": "getParticipants",
      "outputs": [
        {
          "internalType": "address[]",
          "name": "",
          "type": "address[]"
        }
      ],
      "stateMutability": "view",
      "type": "function"
    },
    {
      "inputs": [
        {
          "internalType": "address",
          "name": "",
          "type": "address"
        }
      ],
      "name": "hasClaimed",
      "outputs": [
        {
          "internalType": "bool",
          "name": "",
          "type": "bool"
        }
      ],
      "stateMutability": "view",
      "type": "function"
    },
    {
      "inputs": [],
      "name": "interestPool",
      "outputs": [
        {
          "internalType": "uint256",
          "name": "",
          "type": "uint256"
        }
      ],
      "stateMutability": "view",
      "type": "function"
    },
    {
      "inputs": [
        {
          "internalType": "address",
          "name": "",
          "type": "address"
        }
      ],
      "name": "isParticipant",
      "outputs": [
        {
          "internalType": "bool",
          "name": "",
          "type": "bool"
        }
      ],
      "stateMutability": "view",
      "type": "function"
    },
    {
      "inputs": [
        {
          "internalType": "address",
          "name": "user",
          "type": "address"
        }
      ],
      "name": "isWinner",
      "outputs": [
        {
          "internalType": "uint8",
          "name": "",
          "type": "uint8"
        }
      ],
      "stateMutability": "view",
      "type": "function"
    },
    {
      "inputs": [],
      "name": "maxTicketsPerUser",
      "outputs": [
        {
          "internalType": "uint256",
          "name": "",
          "type": "uint256"
        }
      ],
      "stateMutability": "view",
      "type": "function"
    },
    {
      "inputs": [],
      "name": "owner",
      "outputs": [
        {
          "internalType": "address",
          "name": "",
          "type": "address"
        }
      ],
      "stateMutability": "view",
      "type": "function"
    },
    {
      "inputs": [
        {
          "internalType": "uint256",
          "name": "",
          "type": "uint256"
        }
      ],
      "name": "participants",
      "outputs": [
        {
          "internalType": "address",
          "name": "",
          "type": "address"
        }
      ],
      "stateMutability": "view",
      "type": "function"
    },
    {
      "inputs": [],
      "name": "renounceOwnership",
      "outputs": [],
      "stateMutability": "nonpayable",
      "type": "function"
    },
    {
      "inputs": [],
      "name": "sei",
      "outputs": [
        {
          "internalType": "contract IERC20",
          "name": "",
          "type": "address"
        }
      ],
      "stateMutability": "view",
      "type": "function"
    },
    {
      "inputs": [],
      "name": "ticketPrice",
      "outputs": [
        {
          "internalType": "uint256",
          "name": "",
          "type": "uint256"
        }
      ],
      "stateMutability": "view",
      "type": "function"
    },
    {
      "inputs": [
        {
          "internalType": "address",
          "name": "",
          "type": "address"
        }
      ],
      "name": "tickets",
      "outputs": [
        {
          "internalType": "uint256",
          "name": "",
          "type": "uint256"
        }
      ],
      "stateMutability": "view",
      "type": "function"
    },
    {
      "inputs": [],
      "name": "totalTickets",
      "outputs": [
        {
          "internalType": "uint256",
          "name": "",
          "type": "uint256"
        }
      ],
      "stateMutability": "view",
      "type": "function"
    },
    {
      "inputs": [
        {
          "internalType": "address",
          "name": "newOwner",
          "type": "address"
        }
      ],
      "name": "transferOwnership",
      "outputs": [],
      "stateMutability": "nonpayable",
      "type": "function"
    },
    {
      "inputs": [
        {
          "internalType": "uint256",
          "name": "",
          "type": "uint256"
        }
      ],
      "name": "winners",
      "outputs": [
        {
          "internalType": "address",
          "name": "",
          "type": "address"
        }
      ],
      "stateMutability": "view",
      "type": "function"
    }
  ],
  "bytecode": "0x6080604052670de0b6b3a7640000600255600a6003553480156200002257600080fd5b5060405162002e7338038062002e738339818101604052810190620000489190620001e6565b620000686200005c620000b060201b60201c565b620000b860201b60201c565b80600160006101000a81548173ffffffffffffffffffffffffffffffffffffffff021916908373ffffffffffffffffffffffffffffffffffffffff1602179055505062000218565b600033905090565b60008060009054906101000a900473ffffffffffffffffffffffffffffffffffffffff169050816000806101000a81548173ffffffffffffffffffffffffffffffffffffffff021916908373ffffffffffffffffffffffffffffffffffffffff1602179055508173ffffffffffffffffffffffffffffffffffffffff168173ffffffffffffffffffffffffffffffffffffffff167f8be0079c531659141344cd1fd0a4f28419497f9722a3daafe3b4186f6b6457e060405160405180910390a35050565b600080fd5b600073ffffffffffffffffffffffffffffffffffffffff82169050919050565b6000620001ae8262000181565b9050919050565b620001c081620001a1565b8114620001cc57600080fd5b50565b600081519050620001e081620001b5565b92915050565b600060208284031215620001ff57620001fe6200017c565b5b60006200020f84828501620001cf565b91505092915050565b612c4b80620002286000396000f3fe608060405234801561001057600080fd5b50600436106101375760003560e01c806373b2e80e116100b8578063a2fb11751161007c578063a2fb11751461032c578063ac3077731461035c578063d1d06b2e14610366578063dd11247e14610382578063ea331559146103a0578063f2fde38b146103be57610137565b806373b2e80e146102745780638da5cb5b146102a4578063929066f5146102c25780639c8aea90146102f25780639d9ca28d146102fc57610137565b80634f023d58116100ff5780634f023d58146101e05780635976c2d2146101fe5780635aa68ac01461021c5780636dcbf2a31461023a578063715018a61461026a57610137565b80630668732c1461013c5780631209b1f61461015a5780632f366637146101785780633290f5151461019457806335c1d349146101b0575b600080fd5b6101446103da565b6040516101519190611cc3565b60405180910390f35b6101626103ed565b60405161016f9190611cf7565b60405180910390f35b610192600480360381019061018d9190611d43565b6103f3565b005b6101ae60048036038101906101a99190611d43565b6108a5565b005b6101ca60048036038101906101c59190611d43565b610b79565b6040516101d79190611db1565b60405180910390f35b6101e8610bb8565b6040516101f59190611cf7565b60405180910390f35b610206610bbe565b6040516102139190611cf7565b60405180910390f35b610224610bc4565b6040516102319190611e8a565b60405180910390f35b610254600480360381019061024f9190611ed8565b610c52565b6040516102619190611cf7565b60405180910390f35b610272610c6a565b005b61028e60048036038101906102899190611ed8565b610c7e565b60405161029b9190611cc3565b60405180910390f35b6102ac610c9e565b6040516102b99190611db1565b60405180910390f35b6102dc60048036038101906102d79190611ed8565b610cc7565b6040516102e99190611cc3565b60405180910390f35b6102fa610ce7565b005b61031660048036038101906103119190611ed8565b610e97565b6040516103239190611f21565b60405180910390f35b61034660048036038101906103419190611d43565b610f87565b6040516103539190611db1565b60405180910390f35b610364610fbd565b005b610380600480360381019061037b9190611d43565b6114ec565b005b61038a611847565b6040516103979190611cf7565b60405180910390f35b6103a861184d565b6040516103b59190611f9b565b60405180910390f35b6103d860048036038101906103d39190611ed8565b611873565b005b600b60009054906101000a900460ff1681565b60025481565b600b60009054906101000a900460ff1615610443576040517f08c379a000000000000000000000000000000000000000000000000000000000815260040161043a90612013565b60405180910390fd5b60008111610486576040517f08c379a000000000000000000000000000000000000000000000000000000000815260040161047d9061207f565b60405180910390fd5b60035481600460003373ffffffffffffffffffffffffffffffffffffffff1673ffffffffffffffffffffffffffffffffffffffff168152602001908152602001600020546104d491906120ce565b1115610515576040517f08c379a000000000000000000000000000000000000000000000000000000000815260040161050c9061214e565b60405180910390fd5b600060025482610525919061216e565b905080600160009054906101000a900473ffffffffffffffffffffffffffffffffffffffff1673ffffffffffffffffffffffffffffffffffffffff166370a08231336040518263ffffffff1660e01b81526004016105839190611db1565b602060405180830381865afa1580156105a0573d6000803e3d6000fd5b505050506040513d601f19601f820116820180604052508101906105c491906121c5565b1015610605576040517f08c379a00000000000000000000000000000000000000000000000000000000081526004016105fc9061223e565b60405180910390fd5b6000600160009054906101000a900473ffffffffffffffffffffffffffffffffffffffff1673ffffffffffffffffffffffffffffffffffffffff166323b872dd3330856040518463ffffffff1660e01b81526004016106669392919061225e565b6020604051808303816000875af1158015610685573d6000803e3d6000fd5b505050506040513d601f19601f820116820180604052508101906106a991906122c1565b9050806106eb576040517f08c379a00000000000000000000000000000000000000000000000000000000081526004016106e29061233a565b60405180910390fd5b82600460003373ffffffffffffffffffffffffffffffffffffffff1673ffffffffffffffffffffffffffffffffffffffff168152602001908152602001600020600082825461073a91906120ce565b92505081905550600660003373ffffffffffffffffffffffffffffffffffffffff1673ffffffffffffffffffffffffffffffffffffffff16815260200190815260200160002060009054906101000a900460ff1661084e576005339080600181540180825580915050600190039060005260206000200160009091909190916101000a81548173ffffffffffffffffffffffffffffffffffffffff021916908373ffffffffffffffffffffffffffffffffffffffff1602179055506001600660003373ffffffffffffffffffffffffffffffffffffffff1673ffffffffffffffffffffffffffffffffffffffff16815260200190815260200160002060006101000a81548160ff0219169083151502179055505b826007600082825461086091906120ce565b925050819055507fe11731cb4f1eb3ec3dd09bdc96809bb07365f4c881cda3192b397a4bc0b6da40338460405161089892919061235a565b60405180910390a1505050565b6108ad6118f6565b6000600754116108f2576040517f08c379a00000000000000000000000000000000000000000000000000000000081526004016108e9906123cf565b60405180910390fd5b60008111610935576040517f08c379a000000000000000000000000000000000000000000000000000000000815260040161092c90612461565b60405180910390fd5b600060648260025460075461094a919061216e565b610954919061216e565b61095e91906124b0565b905080600160009054906101000a900473ffffffffffffffffffffffffffffffffffffffff1673ffffffffffffffffffffffffffffffffffffffff166370a08231336040518263ffffffff1660e01b81526004016109bc9190611db1565b602060405180830381865afa1580156109d9573d6000803e3d6000fd5b505050506040513d601f19601f820116820180604052508101906109fd91906121c5565b1015610a3e576040517f08c379a0000000000000000000000000000000000000000000000000000000008152600401610a359061252d565b60405180910390fd5b6000600160009054906101000a900473ffffffffffffffffffffffffffffffffffffffff1673ffffffffffffffffffffffffffffffffffffffff166323b872dd3330856040518463ffffffff1660e01b8152600401610a9f9392919061225e565b6020604051808303816000875af1158015610abe573d6000803e3d6000fd5b505050506040513d601f19601f82011682018060405250810190610ae291906122c1565b905080610b24576040517f08c379a0000000000000000000000000000000000000000000000000000000008152600401610b1b90612599565b60405180910390fd5b8160086000828254610b3691906120ce565b925050819055507f56dd29ec2634abdca83537d650dc9fdb9f5171d9643ddfa75c61ff2081024e2282604051610b6c9190611cf7565b60405180910390a1505050565b60058181548110610b8957600080fd5b906000526020600020016000915054906101000a900473ffffffffffffffffffffffffffffffffffffffff1681565b60035481565b60085481565b60606005805480602002602001604051908101604052809291908181526020018280548015610c4857602002820191906000526020600020905b8160009054906101000a900473ffffffffffffffffffffffffffffffffffffffff1673ffffffffffffffffffffffffffffffffffffffff1681526020019060010190808311610bfe575b5050505050905090565b60046020528060005260406000206000915090505481565b610c726118f6565b610c7c6000611974565b565b600c6020528060005260406000206000915054906101000a900460ff1681565b60008060009054906101000a900473ffffffffffffffffffffffffffffffffffffffff16905090565b60066020528060005260406000206000915054906101000a900460ff1681565b610cef6118f6565b600b60009054906101000a900460ff16610d3e576040517f08c379a0000000000000000000000000000000000000000000000000000000008152600401610d3590612605565b60405180910390fd5b600060646014600854610d51919061216e565b610d5b91906124b0565b905060008111610da0576040517f08c379a0000000000000000000000000000000000000000000000000000000008152600401610d9790612671565b60405180910390fd5b6000600160009054906101000a900473ffffffffffffffffffffffffffffffffffffffff1673ffffffffffffffffffffffffffffffffffffffff1663a9059cbb610de8610c9e565b846040518363ffffffff1660e01b8152600401610e0692919061235a565b6020604051808303816000875af1158015610e25573d6000803e3d6000fd5b505050506040513d601f19601f82011682018060405250810190610e4991906122c1565b905080610e8b576040517f08c379a0000000000000000000000000000000000000000000000000000000008152600401610e82906126dd565b60405180910390fd5b610e93611a38565b5050565b60006009600060028110610eae57610ead6126fd565b5b0160009054906101000a900473ffffffffffffffffffffffffffffffffffffffff1673ffffffffffffffffffffffffffffffffffffffff168273ffffffffffffffffffffffffffffffffffffffff1603610f0b5760019050610f82565b6009600160028110610f2057610f1f6126fd565b5b0160009054906101000a900473ffffffffffffffffffffffffffffffffffffffff1673ffffffffffffffffffffffffffffffffffffffff168273ffffffffffffffffffffffffffffffffffffffff1603610f7d5760029050610f82565b600090505b919050565b60098160028110610f9757600080fd5b016000915054906101000a900473ffffffffffffffffffffffffffffffffffffffff1681565b600b60009054906101000a900460ff1661100c576040517f08c379a000000000000000000000000000000000000000000000000000000000815260040161100390612605565b60405180910390fd5b6000600460003373ffffffffffffffffffffffffffffffffffffffff1673ffffffffffffffffffffffffffffffffffffffff168152602001908152602001600020541161108e576040517f08c379a000000000000000000000000000000000000000000000000000000000815260040161108590612778565b60405180910390fd5b600c60003373ffffffffffffffffffffffffffffffffffffffff1673ffffffffffffffffffffffffffffffffffffffff16815260200190815260200160002060009054906101000a900460ff161561111b576040517f08c379a0000000000000000000000000000000000000000000000000000000008152600401611112906127e4565b60405180910390fd5b6000600254600460003373ffffffffffffffffffffffffffffffffffffffff1673ffffffffffffffffffffffffffffffffffffffff1681526020019081526020016000205461116a919061216e565b905060006009600060028110611183576111826126fd565b5b0160009054906101000a900473ffffffffffffffffffffffffffffffffffffffff1673ffffffffffffffffffffffffffffffffffffffff163373ffffffffffffffffffffffffffffffffffffffff16036111f957606460326008546111e8919061216e565b6111f291906124b0565b9050611281565b600960016002811061120e5761120d6126fd565b5b0160009054906101000a900473ffffffffffffffffffffffffffffffffffffffff1673ffffffffffffffffffffffffffffffffffffffff163373ffffffffffffffffffffffffffffffffffffffff1603611280576064601e600854611273919061216e565b61127d91906124b0565b90505b5b6001600c60003373ffffffffffffffffffffffffffffffffffffffff1673ffffffffffffffffffffffffffffffffffffffff16815260200190815260200160002060006101000a81548160ff0219169083151502179055506000600160009054906101000a900473ffffffffffffffffffffffffffffffffffffffff1673ffffffffffffffffffffffffffffffffffffffff1663a9059cbb33856040518363ffffffff1660e01b815260040161133892919061235a565b6020604051808303816000875af1158015611357573d6000803e3d6000fd5b505050506040513d601f19601f8201168201806040525081019061137b91906122c1565b9050806113bd576040517f08c379a00000000000000000000000000000000000000000000000000000000081526004016113b490612850565b60405180910390fd5b60008211156114ac576000600160009054906101000a900473ffffffffffffffffffffffffffffffffffffffff1673ffffffffffffffffffffffffffffffffffffffff1663a9059cbb33856040518363ffffffff1660e01b815260040161142592919061235a565b6020604051808303816000875af1158015611444573d6000803e3d6000fd5b505050506040513d601f19601f8201168201806040525081019061146891906122c1565b9050806114aa576040517f08c379a00000000000000000000000000000000000000000000000000000000081526004016114a1906128bc565b60405180910390fd5b505b7f4a928ee5d1397dcab0a17b6f9b1e4250d15c6bda472de38c65b38c38ff790d0c3384846040516114df939291906128dc565b60405180910390a1505050565b6114f46118f6565b600b60009054906101000a900460ff1615611544576040517f08c379a000000000000000000000000000000000000000000000000000000000815260040161153b90612013565b60405180910390fd5b6002600580549050101561158d576040517f08c379a00000000000000000000000000000000000000000000000000000000081526004016115849061295f565b60405180910390fd5b6000600854116115d2576040517f08c379a00000000000000000000000000000000000000000000000000000000081526004016115c9906129cb565b60405180910390fd5b600060058054905082426040516020016115ed929190612a0c565b6040516020818303038152906040528051906020012060001c6116109190612a38565b905060058181548110611626576116256126fd565b5b9060005260206000200160009054906101000a900473ffffffffffffffffffffffffffffffffffffffff166009600060028110611666576116656126fd565b5b0160006101000a81548173ffffffffffffffffffffffffffffffffffffffff021916908373ffffffffffffffffffffffffffffffffffffffff16021790555060005b6005805490508342846040516020016116c393929190612a69565b6040516020818303038152906040528051906020012060001c6116e69190612a38565b90508181146116a85760058181548110611703576117026126fd565b5b9060005260206000200160009054906101000a900473ffffffffffffffffffffffffffffffffffffffff166009600160028110611743576117426126fd565b5b0160006101000a81548173ffffffffffffffffffffffffffffffffffffffff021916908373ffffffffffffffffffffffffffffffffffffffff1602179055506001600b60006101000a81548160ff0219169083151502179055507f57eefd11907d420a5bc6da5b06a0825efb7ce425a4699449128c11170d764fbd60096000600281106117d3576117d26126fd565b5b0160009054906101000a900473ffffffffffffffffffffffffffffffffffffffff16600960016002811061180a576118096126fd565b5b0160009054906101000a900473ffffffffffffffffffffffffffffffffffffffff1660405161183a929190612aa6565b60405180910390a1505050565b60075481565b600160009054906101000a900473ffffffffffffffffffffffffffffffffffffffff1681565b61187b6118f6565b600073ffffffffffffffffffffffffffffffffffffffff168173ffffffffffffffffffffffffffffffffffffffff16036118ea576040517f08c379a00000000000000000000000000000000000000000000000000000000081526004016118e190612b41565b60405180910390fd5b6118f381611974565b50565b6118fe611c54565b73ffffffffffffffffffffffffffffffffffffffff1661191c610c9e565b73ffffffffffffffffffffffffffffffffffffffff1614611972576040517f08c379a000000000000000000000000000000000000000000000000000000000815260040161196990612bad565b60405180910390fd5b565b60008060009054906101000a900473ffffffffffffffffffffffffffffffffffffffff169050816000806101000a81548173ffffffffffffffffffffffffffffffffffffffff021916908373ffffffffffffffffffffffffffffffffffffffff1602179055508173ffffffffffffffffffffffffffffffffffffffff168173ffffffffffffffffffffffffffffffffffffffff167f8be0079c531659141344cd1fd0a4f28419497f9722a3daafe3b4186f6b6457e060405160405180910390a35050565b60005b600580549050811015611c0a5760006004600060058481548110611a6257611a616126fd565b5b9060005260206000200160009054906101000a900473ffffffffffffffffffffffffffffffffffffffff1673ffffffffffffffffffffffffffffffffffffffff1673ffffffffffffffffffffffffffffffffffffffff1681526020019081526020016000208190555060006006600060058481548110611ae557611ae46126fd565b5b9060005260206000200160009054906101000a900473ffffffffffffffffffffffffffffffffffffffff1673ffffffffffffffffffffffffffffffffffffffff1673ffffffffffffffffffffffffffffffffffffffff16815260200190815260200160002060006101000a81548160ff0219169083151502179055506000600c600060058481548110611b7b57611b7a6126fd565b5b9060005260206000200160009054906101000a900473ffffffffffffffffffffffffffffffffffffffff1673ffffffffffffffffffffffffffffffffffffffff1673ffffffffffffffffffffffffffffffffffffffff16815260200190815260200160002060006101000a81548160ff0219169083151502179055508080611c0290612bcd565b915050611a3b565b5060056000611c199190611c5c565b600060078190555060006008819055506000600b60006101000a81548160ff02191690831515021790555060096000611c529190611c7d565b565b600033905090565b5080546000825590600052602060002090810190611c7a9190611c8b565b50565b506000815560010160009055565b5b80821115611ca4576000816000905550600101611c8c565b5090565b60008115159050919050565b611cbd81611ca8565b82525050565b6000602082019050611cd86000830184611cb4565b92915050565b6000819050919050565b611cf181611cde565b82525050565b6000602082019050611d0c6000830184611ce8565b92915050565b600080fd5b611d2081611cde565b8114611d2b57600080fd5b50565b600081359050611d3d81611d17565b92915050565b600060208284031215611d5957611d58611d12565b5b6000611d6784828501611d2e565b91505092915050565b600073ffffffffffffffffffffffffffffffffffffffff82169050919050565b6000611d9b82611d70565b9050919050565b611dab81611d90565b82525050565b6000602082019050611dc66000830184611da2565b92915050565b600081519050919050565b600082825260208201905092915050565b6000819050602082019050919050565b611e0181611d90565b82525050565b6000611e138383611df8565b60208301905092915050565b6000602082019050919050565b6000611e3782611dcc565b611e418185611dd7565b9350611e4c83611de8565b8060005b83811015611e7d578151611e648882611e07565b9750611e6f83611e1f565b925050600181019050611e50565b5085935050505092915050565b60006020820190508181036000830152611ea48184611e2c565b905092915050565b611eb581611d90565b8114611ec057600080fd5b50565b600081359050611ed281611eac565b92915050565b600060208284031215611eee57611eed611d12565b5b6000611efc84828501611ec3565b91505092915050565b600060ff82169050919050565b611f1b81611f05565b82525050565b6000602082019050611f366000830184611f12565b92915050565b6000819050919050565b6000611f61611f5c611f5784611d70565b611f3c565b611d70565b9050919050565b6000611f7382611f46565b9050919050565b6000611f8582611f68565b9050919050565b611f9581611f7a565b82525050565b6000602082019050611fb06000830184611f8c565b92915050565b600082825260208201905092915050565b7f4472617720616c726561647920636f6d706c6574656400000000000000000000600082015250565b6000611ffd601683611fb6565b915061200882611fc7565b602082019050919050565b6000602082019050818103600083015261202c81611ff0565b9050919050565b7f4d75737420627579206174206c65617374206f6e65207469636b657400000000600082015250565b6000612069601c83611fb6565b915061207482612033565b602082019050919050565b600060208201905081810360008301526120988161205c565b9050919050565b7f4e487b7100000000000000000000000000000000000000000000000000000000600052601160045260246000fd5b60006120d982611cde565b91506120e483611cde565b92508282019050808211156120fc576120fb61209f565b5b92915050565b7f45786365656473206d6178696d756d207469636b657473207065722075736572600082015250565b6000612138602083611fb6565b915061214382612102565b602082019050919050565b600060208201905081810360008301526121678161212b565b9050919050565b600061217982611cde565b915061218483611cde565b925082820261219281611cde565b915082820484148315176121a9576121a861209f565b5b5092915050565b6000815190506121bf81611d17565b92915050565b6000602082840312156121db576121da611d12565b5b60006121e9848285016121b0565b91505092915050565b7f496e73756666696369656e74205345492062616c616e63650000000000000000600082015250565b6000612228601883611fb6565b9150612233826121f2565b602082019050919050565b600060208201905081810360008301526122578161221b565b9050919050565b60006060820190506122736000830186611da2565b6122806020830185611da2565b61228d6040830184611ce8565b949350505050565b61229e81611ca8565b81146122a957600080fd5b50565b6000815190506122bb81612295565b92915050565b6000602082840312156122d7576122d6611d12565b5b60006122e5848285016122ac565b91505092915050565b7f534549207472616e73666572206661696c656400000000000000000000000000600082015250565b6000612324601383611fb6565b915061232f826122ee565b602082019050919050565b6000602082019050818103600083015261235381612317565b9050919050565b600060408201905061236f6000830185611da2565b61237c6020830184611ce8565b9392505050565b7f4e6f207469636b65747320736f6c642079657400000000000000000000000000600082015250565b60006123b9601383611fb6565b91506123c482612383565b602082019050919050565b600060208201905081810360008301526123e8816123ac565b9050919050565b7f50657263656e74616765206d7573742062652067726561746572207468616e2060008201527f7a65726f00000000000000000000000000000000000000000000000000000000602082015250565b600061244b602483611fb6565b9150612456826123ef565b604082019050919050565b6000602082019050818103600083015261247a8161243e565b9050919050565b7f4e487b7100000000000000000000000000000000000000000000000000000000600052601260045260246000fd5b60006124bb82611cde565b91506124c683611cde565b9250826124d6576124d5612481565b5b828204905092915050565b7f496e73756666696369656e742061646d696e205345492062616c616e63650000600082015250565b6000612517601e83611fb6565b9150612522826124e1565b602082019050919050565b600060208201905081810360008301526125468161250a565b9050919050565b7f496e746572657374207472616e73666572206661696c65640000000000000000600082015250565b6000612583601883611fb6565b915061258e8261254d565b602082019050919050565b600060208201905081810360008301526125b281612576565b9050919050565b7f44726177206e6f7420636f6d706c657465642079657400000000000000000000600082015250565b60006125ef601683611fb6565b91506125fa826125b9565b602082019050919050565b6000602082019050818103600083015261261e816125e2565b9050919050565b7f4e6f20706c6174666f726d2066656520746f20636c61696d0000000000000000600082015250565b600061265b601883611fb6565b915061266682612625565b602082019050919050565b6000602082019050818103600083015261268a8161264e565b9050919050565b7f506c6174666f726d20666565207472616e73666572206661696c656400000000600082015250565b60006126c7601c83611fb6565b91506126d282612691565b602082019050919050565b600060208201905081810360008301526126f6816126ba565b9050919050565b7f4e487b7100000000000000000000000000000000000000000000000000000000600052603260045260246000fd5b7f4e6f207469636b65747320746f20636c61696d00000000000000000000000000600082015250565b6000612762601383611fb6565b915061276d8261272c565b602082019050919050565b6000602082019050818103600083015261279181612755565b9050919050565b7f416c726561647920636c61696d65640000000000000000000000000000000000600082015250565b60006127ce600f83611fb6565b91506127d982612798565b602082019050919050565b600060208201905081810360008301526127fd816127c1565b9050919050565b7f526566756e64207472616e73666572206661696c656400000000000000000000600082015250565b600061283a601683611fb6565b915061284582612804565b602082019050919050565b600060208201905081810360008301526128698161282d565b9050919050565b7f5072697a65207472616e73666572206661696c65640000000000000000000000600082015250565b60006128a6601583611fb6565b91506128b182612870565b602082019050919050565b600060208201905081810360008301526128d581612899565b9050919050565b60006060820190506128f16000830186611da2565b6128fe6020830185611ce8565b61290b6040830184611ce8565b949350505050565b7f4e656564206174206c656173742074776f207061727469636970616e74730000600082015250565b6000612949601e83611fb6565b915061295482612913565b602082019050919050565b600060208201905081810360008301526129788161293c565b9050919050565b7f496e74657265737420706f6f6c20697320656d70747900000000000000000000600082015250565b60006129b5601683611fb6565b91506129c08261297f565b602082019050919050565b600060208201905081810360008301526129e4816129a8565b9050919050565b6000819050919050565b612a06612a0182611cde565b6129eb565b82525050565b6000612a1882856129f5565b602082019150612a2882846129f5565b6020820191508190509392505050565b6000612a4382611cde565b9150612a4e83611cde565b925082612a5e57612a5d612481565b5b828206905092915050565b6000612a7582866129f5565b602082019150612a8582856129f5565b602082019150612a9582846129f5565b602082019150819050949350505050565b6000604082019050612abb6000830185611da2565b612ac86020830184611da2565b9392505050565b7f4f776e61626c653a206e6577206f776e657220697320746865207a65726f206160008201527f6464726573730000000000000000000000000000000000000000000000000000602082015250565b6000612b2b602683611fb6565b9150612b3682612acf565b604082019050919050565b60006020820190508181036000830152612b5a81612b1e565b9050919050565b7f4f776e61626c653a2063616c6c6572206973206e6f7420746865206f776e6572600082015250565b6000612b97602083611fb6565b9150612ba282612b61565b602082019050919050565b60006020820190508181036000830152612bc681612b8a565b9050919050565b6000612bd882611cde565b91507fffffffffffffffffffffffffffffffffffffffffffffffffffffffffffffffff8203612c0a57612c0961209f565b5b60018201905091905056fea2646970667358221220b814b68eaf2ff786435c533b25a31af6fa5310513d2576a9878dfdc7dcf6175e64736f6c63430008120033",
  "linkReferences": {},
  "deployedLinkReferences": {}
}